:03000000020006F5
:03005F0002000399
:03000300020102F5
:20006200AE82AF838E048F051EBEFF011FEC4D70F322740FF590B59001229003E8120062DE
:20008200740FB590012275900FAF90BF0702800FBF0B02800FBF0D02800FBF0E14800F752C
:2000A2000800800D750801800875080280037508037590F0AF90BF7002802ABFB002800C15
:2000C200BFD0028010BFE01D80148019AF0874042FF5088010AF0874082FF5088007AF088C
:2000E200740C2FF5087F00BF3200501374F0B59001229003E8C007120062D0070F80E8228D
:0501020012007480FBF7
:06003500E478FFF6D8FD9F
:200013007900E94400601B7A0090010B780175A000E493F2A308B8000205A0D9F4DAF27587
:02003300A0FF2C
:20003B007800E84400600A790175A000E4F309D8FC7800E84400600C7900900001E4F0A3C3
:04005B00D8FCD9FAFA
:0D000600758108120107E582600302000306
:0401070075820022DB
:00000001FF
