:10000000020098007F327E64DEFEDFFA2275900FD8
:10001000E590540FF5F07590F0E59054F045F0B48C
:10002000FF0122120004E590B4F0012275900FE563
:1000300090540FB40F0280F7B407047A018017B40C
:100040000B047A028010B40D047A038009B40E0404
:100050007A048002D2117590F000E59054F0B470EB
:10006000047B048018B4B0047B038011B4D0047BFB
:1000700002800AB4E0047B018003D21022EAC39418
:100080000175F004A42BEA7590F0AC90BCF0FBB4C1
:100090000203D21122F5822212000D3011FAB2B7FA
:0C00A000C2B1E582B401F175A0F980EC5A
:00000001FF
