:10000000020092007F327E64DEFEDFFA2275900FDE
:10001000E590540FF5F07590F0E59054F045F0B48C
:10002000FF0122120004E590B4F0012275900F54F4
:100030000FA890B807067A01C2B78017B80B047AE8
:10004000028010B80D047A038009B80E047A048087
:1000500002D2107590F000A890B870047B0480184C
:10006000B8B0047B038011B8D0047B02800AB8E0EA
:10007000047B018003D21022EAC3940175F004A42A
:100080002B7590F0AC90BCF0FBB40203D21122F5BA
:10009000822212000D3011FAC2B7C2B1E582B4015A
:0600A000F175A0F980ECEF
:00000001FF
