:10000000020098007F327E64DEFEDFFA2275900FD8
:10001000E590540FF5F07590F0E59054F045F0B48C
:10002000FF0122120004E590B4F0012275900FE563
:1000300090540FB40F0280F7B407047A048018B408
:100040000B047A038011B40D047A02800AB40E0402
:100050007A018003D210227590F000E59054F0B43C
:1000600070047B018018B4B0047B028011B4D0040A
:100070007B03800AB4E0047B048003D21022EAC32D
:10008000940175F004A42B7590F0AC90BCF0FBB417
:100090000403D21122F5822212000D3011FAC2118E
:0E00A000B2B7C2B1E582B401EF75A0F980EAF3
:00000001FF
