:10000000020075007F327E64DEFEDFFA2275900FFB
:10001000E590B407047A018018B40B047A028011C9
:10002000B40D047A03800AB40E047A048003D2105B
:10003000227590F0E590B470047B048018B4B0048D
:100040007B038011B4D0047B02800AB4E0047B01FE
:100050008003D21022EAC3940175F004A42B7D32F0
:10006000AC90BCF0028005120004DDF4B40203D2AF
:100070001122F5822212000D3011FAC2B7E582B4C6
:0700800001F375A0F980EE09
:00000001FF
