:10000000020082007F327E64DEFEDFFA2275900FEE
:1000100000E590B40F0122120004E590B40F012214
:1000200075900FA890B807047A018017B80B047A6E
:10003000028010B80D047A038009B80E047A048097
:1000400002D2107590F000A890B870047B0480185C
:10005000B8B0047B038011B8D0047B02800AB8E0FA
:10006000047B018003D21022EAC3940175F004A43A
:100070002B7590F0AC90BCF0FBB40203D21122F5CA
:10008000822212000D3011FAC2B7C2B1E582B4016A
:06009000F175A0F980ECFF
:00000001FF
