:03000000020040BB
:03000B0002004EA2
:101030000001020300040506000708090000000083
:10004000D2AFD2A975D058758920D28C80FED28CBF
:10005000120092301124C21130121F30131CC21230
:10006000C213117B7850AA407B007C01BA010512B3
:10007000012DB2B6BA020312012D3278507F0A90D8
:100080001030E693F608DFF7227F327E64DEFEDF73
:10009000FA2275900FE590540FF5F07590F0E59009
:1000A00054F045F0B4FF0122120089E590B4F0014C
:1000B0002275900FE590540FB40F0280F7B4070437
:1000C0007A048018B40B047A038011B40D047A0208
:1000D000800AB40E047A018003D210227590F000D9
:1000E000E59054F0B470047B018018B4B0047B0236
:1000F0008011B4D0047B03800AB4E0047B04800345
:10010000D21022EAC3940175F004A42B7590F0ACD0
:1001100090BCF0FBB40403D21122B40805D21278CB
:100120005022B40C05D213784022F60822758DF3C4
:10013000758BF3D28E7587007598D8EAF59930994A
:10014000FD3098FDC298C299E5996A60077599FEDD
:10015000D29B80E7C29B8B993099FD3098FDC29865
:10016000C299E599BB0010B401E386993099FDC2AC
:100170009908DCF6B2B722BBFF0EB402D03098FD6E
:0B018000C298A79909DCF622D20022E9
:00000001FF
