:03000000020040BB
:101030000001020300040506000708090000000083
:1000400075D06512007F3011FAC2113012F53013ED
:10005000F211687850AA407B007C01EAB40102C228
:10006000B712011AC2B680FE78507F0A901030E6AF
:1000700093F608DFF7227F327E64DEFEDFFA227518
:10008000900FE590540FF5F07590F0E59054F04521
:10009000F0B4FF0122120076E590B4F001227590D1
:1000A0000FE590540FB40F0280F7B407047A048070
:1000B00018B40B047A038011B40D047A02800AB4D8
:1000C0000E047A018003D210227590F000E590545E
:1000D000F0B470047B018018B4B0047B028011B4CA
:1000E000D0047B03800AB4E0047B048003D2102296
:1000F000EAC3940175F004A42B7590F0AC90BCF0A9
:10010000FBB40403D21122B40805D212785022B4F1
:100110000C05D213784022F60822758920758DF3DC
:10012000758BF3D28E7587007598D8EAF59930995A
:10013000FD3098FDC298C299E5996A6007759900EB
:10014000D29B80E7C29B8B993099FD3098FDC29875
:10015000C299E599BB000EB401E386993099FDC2BE
:100160009908DCF622BBFF0EB402D23098FDC2988B
:09017000A79909DCF622D2002255
:00000001FF
