:03000000020030CB
:0300230002005A7E
:0A070000C0F9A4B0999282F880902D
:100030007581607598F0758920758DF3758BF3D295
:100040008E758700D2AFD2AC750840750950750A1D
:1000500001E540B405FBC2B780F7C298C0E0C0D04C
:10006000D2D3C2D4E59964016009D0D0D0E0C2D324
:10007000D29D32C29D7599013099FD3098FDC2988C
:10008000C299209A32E599B4001B7599013099FD07
:100090003098FDC299C298A699E690070093F5A002
:1000A00008DAED80C5B4FF0F7599023099FDC29949
:0C00B000879909DAF680B375990080AEDC
:00000001FF
