:03000000020030CB
:0300230002005A7E
:0A070000C0F9A4B0999282F880902D
:100030007581607598F0758920758DF3758BF3D295
:100040008E758700D2AFD2AC750840750950750A1D
:1000500001E540B405FBC2B780F7C298C0E0C0D04C
:10006000D2D3C2D4E59964026009D0D0D0E0C2D323
:10007000D29D32C29D7599023099FD3098FDC2988B
:10008000C299209A34E599B4001D7599013099FD03
:100090003098FDC299C298A699E690070093F5A002
:1000A00008DAED7A0180C3B4FF0F7599023099FD2B
:0E00B000C299879909DAF680B175990080AC83
:00000001FF
