:03000000020030CB
:0300230002005A7E
:100030007581607598F0758920758DF3758BF3D295
:100040008E758700D2AFD2AC750840750950750A1D
:1000500001E540B411FBC2B780F7C298C0E0C0D040
:10006000D2D3C2D4E59964016009D0D0D0E0C2D324
:10007000D29D32C29D7599013099FD3098FDC2988C
:10008000C299209A2BE599B400147599013099FD15
:100090003098FDC299C298A69908DAF480CCB4FFD2
:1000A0000F7599023099FDC299879909DAF680BADD
:0500B00075990080B508
:00000001FF
